:020000040800F2
:100000009011002045010008432500082D24000818
:1000100041250008C5020008EB2A00080000000086
:100020000000000000000000000000005701000870
:10003000D5020008000000005B010008A1250008AF
:100040005F0100085F0100085F0100085F01000810
:100050005F0100085F0100085F0100085F01000800
:100060005F0100085F0100085F010008C902000885
:100070005F0100085F0100085F0100085F010008E0
:100080005F0100085F0100085F0100085F010008D0
:100090005F0100085F0100085F0100085F010008C0
:1000A0005F010008612600085F0100085F01000889
:1000B0005F0100085F0100085F0100085F010008A0
:1000C0005F0100085F0100085F0100085F01000890
:1000D0005F0100085F0100085F0100085F01000880
:1000E0005F0100085F0100085F0100085F01000870
:1000F0005F0100085F0100085F0100085F01000860
:100100005F0100085F0100085F0100085F0100084F
:100110005F0100085F0100085F0100085F0100083F
:100120005F0100085F0100085F0100085F0100082F
:10013000DFF80CD000F068F800480047712D000887
:10014000901100200648804706480047FEE7FEE77A
:10015000FEE7FEE7FEE7FEE7FEE7FEE7FEE7FEE777
:100160001926000831010008202A04DB203A21FA70
:1001700002F00021704721FA02F3D040C2F12002C0
:1001800091400843194670472DE9F05F054600206D
:1001900092469B4688460646814640241BE02846F8
:1001A000414647462246FFF7DFFF53465A46C01AEC
:1001B000914110D311461846224600F016F82D1A28
:1001C00067EB01084F4622460120002100F00DF8A0
:1001D00017EB00094E41201EA4F10104DFDC484664
:1001E00031462A464346BDE8F09F202A04DB203AE8
:1001F00000FA02F1002070479140C2F1200320FA7A
:1002000003F3194390407047064C074D06E0E06841
:1002100040F0010394E8070098471034AC42F6D34D
:10022000FFF78AFF042E0008242E000870B504464C
:1002300020688168C943C9071BD1816821F0010189
:10024000816000F011FF05460EE000F00DFF401B3D
:10025000022809D9A06A40F01000A062E06A40F0CC
:100260000100E062012070BD20688068C043C007C3
:10027000EBD0002070BD000010B586B010480F49CB
:100280000160242141600024846040F2E731C160B4
:10029000046140F22B11416101F0A9FD4FF480503F
:1002A000029002A9064801F0E7FD00940194694616
:1002B000034801F074FD06B010BD0000002C0140A1
:1002C00054010020FEE70000014800F071BA000070
:1002D000A0000020FEE7000030B58DB018484FF0B8
:1002E0008041016023214160002484604FF4C87183
:1002F000C160046101F07BFD4FF48050099009A9B1
:100300000F4801F0B9FD0794089407A90C4801F0C3
:1003100046FD6020009040F28F15019502940494F0
:1003200008226946064801F010FF01950C22694633
:10033000034801F00AFF024801F0DEFE0DB030BDB7
:100340001801002010B58CB0002390F82420012A59
:1003500018D0012280F82420114A00920268946883
:10036000E443E40711D0009CA468E443E4070CD004
:100370000C4CA24209D15468096824F470240C433F
:10038000546007E002200CB010BD816A41F02001EA
:1003900081620123002180F824101846F3E7000051
:1003A00000280140002401402DE9F84100230024E9
:1003B000009490F82420012A22D0012280F82420E1
:1003C0004A681F274FF47876072A1CD20568D5F8AB
:1003D00034C096FAA6F8521EB8FA88F802FB08F85C
:1003E00007FA08F72CEA070C96FAA6F6B6FA86F68C
:1003F0000F68724397404CEA070CC5F834C037E0E9
:100400000220BDE8F8810D2A19D20568D5F830C060
:1004100096FAA6F8D21FB8FA88F802FB08F807FA8D
:1004200008F72CEA070C96FAA6F6B6FA86F60F68D5
:10043000724397404CEA070CC5F830C018E00568D5
:10044000D5F82CC096FAA6F80D3AB8FA88F802FB4F
:1004500008F807FA08F72CEA070C96FAA6F6B6FA97
:1004600086F60F68724397404CEA070CC5F82CC01B
:100470000A68382607270A2A19D30568D5F80CC058
:1004800096FAA6F80A3AB8FA88F802FB08F807FACA
:1004900008F72CEA070C96FAA6F6B6FA86F68F68E5
:1004A000724397404CEA070CC5F80CC017E005688A
:1004B000D5F810C096FAA6F8B8FA88F802FB08F842
:1004C00007FA08F72CEA070C96FAA6F6B6FA86F6AB
:1004D0008F68724397404CEA070CC5F810C00A6851
:1004E000102A01D0112A23D1134D0268AA421AD131
:1004F00095682D021CD4956845F40005956009683F
:10050000102915D10D490E4A0968B1FBF2F101EB32
:1005100081014900009102E00099491E0091009973
:100520000029F9D104E0816A41F0200181620123B0
:1005300080F82440184664E70024014000000020B1
:1005400040420F002DE9F04104460025002C03D065
:10055000A06A002618B108E00120BDE8F081E6623B
:1005600084F82460204600F091F82046FFF75EFEF4
:10057000A16AC90600D428B1A06A40F01000A062A8
:100580000120EAE7A16A21F4885141F00201A16249
:100590003B4923688B4206D1E269B2F5402F03D173
:1005A0004FF4002200E0E269022191FAA1F1E7682C
:1005B000B1FA81F107FA01F10A4361680A43A168BF
:1005C0004FF4807C614508D0012906D00021D4F881
:1005D0001480B8F1010F02D00AE06146F7E7C7B115
:1005E000A76A47F02007A762E76A47F00107E762BA
:1005F0005F6827F469470F435F6021688B68214F6C
:100600003B4013438B60A168614510D001290ED097
:1006100016E0A7694FF4604898FAA8F87F1EB8FA68
:1006200088F807FA08F70F4347F40061E0E7256907
:100630004FF4700191FAA1F16D1EB1FA81F18D4074
:100640002168CB6A23F470032B43CB62216889684D
:100650000D4B1940914207D1E662A16A21F00201D7
:1006600041F00101A16278E7A06A20F0020040F0A9
:100670001000A062E06A40F00100E06201206CE737
:10068000003C0140FDF7E1FFFE0E1FFF70B586B094
:100690000546404E28684049012403223F4BB042A2
:1006A0003BD1886940F400708861886900F400706B
:1006B0000190886940F004008861886900F00400B6
:1006C0000190486940F001004861486900F001006C
:1006D00001900294039202A9184600F0B5FB314C38
:1006E0002F48206000206060A060E06070152061ED
:1006F000800060612020A0610002E061204600F0DF
:100700006FFB2C626562002211460B2000F018FD81
:100710000B2000F009FD06B070BD234DA84216D194
:10072000886940F480608861886900F48060019085
:10073000886940F004008861886900F00400019035
:100740000294039202A9184600F07EFBE3E7174CDF
:10075000A042E0D1886940F400408861886900F4D3
:1007600000400190886940F004008861886900F0C9
:100770000400019002200290039202A9184600F0A2
:1007800063FB002201212F2000F0DAFC2F2000F073
:10079000CBFCC0E7002401400010024000080140EB
:1007A00008000240A000002000280140003C014059
:1007B0002DE9F05F0446F94AF84DF84EF74FD11491
:1007C000DFF8D883DFF8D493DFF8D0A320680B02DA
:1007D000783D643E503FDFF8C8B34FF4004EA8F1B7
:1007E0003C08A9F12809AAF1140A904236D9EC4A2A
:1007F000083AD2F800C0A84201D108222BE0B0424A
:1008000001D1802227E0B84201D10A4623E04045C9
:1008100001D172461FE0484501D11A461BE0504500
:1008200002D14FF4000216E0584501D1082212E02F
:10083000DB4A1432904201D180220CE0D84A28329F
:10084000904201D10A4606E0D54A3C32904201D19D
:10085000724600E01A460CEA020C3AE0CF4A803AAF
:10086000D2F800C0A84201D1082230E0B04201D144
:1008700080222CE0B84201D10A4628E0404501D14F
:10088000724624E0484501D11A4620E0504502D185
:100890004FF400021BE0C14A904201D1020516E06C
:1008A000584501D1082212E0BD4A1432904201D1CC
:1008B00080220CE0BA4A2832904201D10A4606E072
:1008C000B74A3C32904201D1724600E01A460CEA27
:1008D000020CBCF1000F7FD00268D24312077BD418
:1008E000026822F008020260AC4A206890422FD9C8
:1008F000A84201D1082127E0B04201D1802123E0A4
:10090000B84221D0404501D171461DE0484501D192
:10091000194619E0504502D14FF4000114E0584542
:1009200001D1082110E09E4A1432904201D1802169
:100930000AE09B4A2832904206D099493C318842CD
:1009400001D1714600E019469548001F016033E06F
:10095000A84201D108212CE0B04201D1802128E039
:10096000B84226D0404501D1714622E0484501D128
:1009700019461EE0504502D14FF4000119E09042A3
:1009800002D14FF0006114E0584501D1082110E078
:10099000834A1432904201D180210AE0804A2832F1
:1009A000904206D07E493C31884201D1714600E038
:1009B00019467A4880384160606B40F001006063FE
:1009C000042084F82100002084F82000216B09B164
:1009D000204600E000E08847704A206811150B01AE
:1009E0004FF4802E904236D96D4A083AD2F800C0B2
:1009F000A84201D104222BE0B04201D1402227E0DD
:100A0000B84201D10A4623E0404501D11A461FE011
:100A1000484501D172461BE0504502D14FF4800297
:100A200016E0584501D1042212E05D4A143290428A
:100A300001D140220CE05A4A2832904201D10A46A4
:100A400006E0574A3C32904201D11A4600E0724615
:100A50000CEA020C3AE0514A803AD2F800C0A842AF
:100A600001D1042230E0B04201D140222CE0B84252
:100A700001D10A4628E0404501D11A4624E0484504
:100A800001D1724620E0504502D14FF480021BE0B4
:100A9000424A904201D1C20416E0584501D10422D5
:100AA00012E03F4A1432904201D140220CE03C4A0D
:100AB0002832904201D10A4606E0394A3C3290423F
:100AC00001D11A4600E072460CEA020CBCF1000F9C
:100AD0007CD00268D243520778D40268920603D4CD
:100AE000026822F0040202602C4A206890422FD94A
:100AF000A84201D1042127E0B04201D1402123E0E6
:100B0000B84221D0404501D119461DE0484501D1E8
:100B1000714619E0504502D14FF4800114E0584568
:100B200001D1042110E01E4A1432904201D140212B
:100B30000AE01B4A2832904206D019493C318842CB
:100B400001D1194600E071461548001F016036E0EA
:100B5000A84201D1042130E0B04201D140212CE073
:100B6000B8422AD0404501D1194626E0484501D176
:100B7000714622E0504502D14FF480011DE09042C1
:100B800002D14FF0806118E0584501D1042114E0F2
:100B9000034A1432904206D140210EE08000024008
:100BA0000804024012E08C4A904206D08A4914316F
:100BB000884201D1194600E0714688484160112001
:100BC00084F82100E16A09B120468847DFF80CC2A9
:100BD0004FF4007120680CF1800C0B01604537D98F
:100BE0007D4A303AD2F800E0A84201D102222CE03E
:100BF000B04201D1202228E0B84201D10A4624E0C7
:100C0000404501D11A4620E0484502D14FF4003258
:100C10001BE0504502D14FF4001216E0584501D1B7
:100C2000022212E06C4A143A904201D120220CE0D8
:100C3000694A904201D10A4607E0674A143290425D
:100C400001D11A4601E04FF400320EEA020E3AE0FA
:100C5000624AD2F800E0A84201D1022231E0B0425B
:100C600001D120222DE0B84201D10A4629E04045B9
:100C700001D11A4625E0484502D14FF4003220E068
:100C8000504502D14FF400121BE0604502D14FF0F5
:100C9000007216E0584501D1022212E04E4A143A81
:100CA000904201D120220CE04B4A904201D10A46E9
:100CB00007E0494A1432904201D11A4601E04FF44C
:100CC00000320EEA020EBEF1000F6ED00268D2436F
:100CD00092077ED40268920603D4026822F00202D0
:100CE00002602068604530D9A84201D1022128E085
:100CF000B04201D1202124E0B84222D0404501D1A8
:100D000019461EE0484502D14FF4003119E0504524
:100D100002D14FF4001114E0584501D1022110E036
:100D20002D4A143A904201D120210AE02A4A9042E9
:100D300007D029491431884201D1194601E04FF406
:100D4000003125482C38016034E0A84201D102214D
:100D50002EE0B04201D120212AE0B84228D04045FF
:100D600001D1194624E0484502D14FF400311FE07B
:100D7000504502D14FF400111AE0604502D14FF006
:100D8000007115E0584501D1022111E0124A143AD0
:100D9000904201D120210BE00F4A904208D00E4929
:100DA0001431884202D1194602E012E04FF40031BA
:100DB0000A484160606B6063012084F821000020D4
:100DC00084F82000A16A002903D02046BDE8F05F26
:100DD0000847BDE8F09F00003004024000000240D8
:100DE00070B5002804D090F82110002411B103E060
:100DF000012070BD80F82040022180F82110016898
:100E00000A6843F6F0739A43D0E901352B43D0E9E1
:100E1000035635432B4345692B4385692B43C569ED
:100E20002B4313430B604463012180F82110002001
:100E300070BD31B500F018F9044600F015F90099BD
:100E4000001B8842F9D338BD2DE9F84F0023002458
:100E5000DFF8DC914FF00F0809F1040A0AF1040BE6
:100E60000BF1040E0127A7400A683A40BA4275D137
:100E7000DFF8C0C14D68A5EB0C0665452BD00DDC35
:100E8000032D34D005DC35B3012D19D0022D2FD11F
:100E90001BE0112D16D0122D2AD119E0B6F5881FAE
:100EA00019D006DCB6F5803F15D0B6F5801F1FD1EE
:100EB00011E0B6F5001F0ED0B6F5041F18D10AE0F8
:100EC000CB6815E0CB681B1D12E0CB6808330FE040
:100ED000CB680C330CE08B6823B1012B04D00823C2
:100EE000476105E0042303E00823076100E00023D5
:100EF000FF2A01D8054601E000F1040502D84FEAB7
:100F0000840603E0A4F108064FEA86062F6808FA73
:100F100006FC27EA0C0703FA06F647EA06072F60E5
:100F20004D68ED007ED5444DAE6946F00106AE61D8
:100F3000AD6905F001050095404D24F003067719D1
:100F4000BE68A5072D0F08FA05FC26EA0C06DFF897
:100F5000F0C0604503D14FF0000C25E062E0DFF8FF
:100F6000E4C0604502D14FF0010C1DE0DFF8D8C0AD
:100F7000604502D14FF0020C16E0DFF8D0C06045AA
:100F800002D14FF0030C0FE0DFF8C4C0604502D17E
:100F90004FF0040C08E0DFF8BCC0604502D14FF010
:100FA000050C01E04FF0060C0CFA05FC4CEA060CAF
:100FB000C7F808C04D68ED0305D5D9F800501543B2
:100FC000C9F8005004E0D9F800509543C9F8005022
:100FD0004D68AD0305D5DAF800501543CAF8005046
:100FE00004E0DAF800509543CAF800504D68ED026D
:100FF00005D5DBF800501543CBF8005004E0DBF8D2
:1010000000509543CBF800504D68AD0205D5DEF891
:1010100000501543CEF8005004E0DEF80050954330
:10102000CEF80050641C102CFFF41CAFBDE8F88F04
:1010300000040140000011100010024000000140B7
:1010400000080140000C0140001001400014014064
:1010500000180140001C0140002A01D001617047C6
:1010600009040161704700000148006870470000F2
:101070000400002002480168491C0160704700001C
:101080000400002010B50748016841F0100101601C
:10109000032000F075F8002000F006F800F016F8C4
:1010A000002010BD0020024010B5044600F06CFA8C
:1010B0004FF47A72B0FBF2F000F057FE00222146A6
:1010C000501E00F03DF8002010BD000008B5154886
:1010D000816941F001018161806900F001000090A7
:1010E000052000F04DF8002211466FF00B0000F0D3
:1010F00027F8002211466FF00A0000F021F80022C4
:1011000011466FF0090000F01BF800221146101F75
:1011100000F016F80022BDE808401146501E00F00D
:101120000FB800000010024000F01F0201219140A2
:101130004009800000F1E020C0F800117047000075
:10114000F0B40D460D4B1B68C3F30223C3F1070433
:10115000042C00D90424191D072901D2002300E022
:10116000DB1E012606FA04F1491E294099409E40E3
:10117000761E16403143F0BC01F002BA0CED00E0DF
:1011800000F00701054A10684FF6FF03184040EAD7
:101190000120034908431060704700000CED00E097
:1011A0000000FA052DE9F8430446464F2078C007B1
:1011B00074D0F86940F08050F861F86900F0805010
:1011C0000090414D286840F480702860FFF74CFF84
:1011D000064607E0FFF748FF801B642802D903207A
:1011E000BDE8F8832868C005F4D5386AA18800F402
:1011F000407001F44071884250D0386A20F4407049
:101200004FF4803292FAA2F1B1FA81F18B002F49AA
:101210004FF001080B44C3F8008492FAA2F2B2FA2C
:1012200082F201EB82010023C1F8003438628007AA
:101230002ED5FFF719FF064641F28839022506E050
:10124000FFF712FF801B484501D90320C8E795FA34
:10125000A5F0B0FA80F040F040014046B8EB511FD5
:1012600001D139680BE095FAA5F1B1FA81F141F0AD
:101270004001B5EB511F01D1396A00E0796A95FA56
:10128000A5F2B2FA82F202F01F0290400142D7D0DA
:10129000386A616820F4407008433862207880071B
:1012A00005D57868A16820F440400843786020782C
:1012B000C00605D57868616920F48000084378602D
:1012C00000208DE700100240007000400000424204
:1012D0002DE9F04704460F46DFF8A492D9F8000044
:1012E000A84D00F007010120430446064FF0020C10
:1012F00041F28838B9426FD2D9F8001021F00701C5
:101300003943C9F80010D9F8001001F00701B942BB
:1013100001D0BDE8F0872178890705D56968A26802
:1013200021F0F001114369602178C90761D061683B
:1013300001290BD002291FD09CFAACF2B2FA82F23A
:1013400042F0200252092DD02A682CE093FAA3F231
:10135000B2FA82F242F02002520901D02A6800E07B
:101360006A6A93FAA3F3B3FA83F303F01F03984076
:10137000024223D10120CCE796FAA6F2B2FA82F219
:1013800042F02002520901D02A6800E06A6A96FA07
:10139000A6F3B3FA83F303F01F03984002420DD182
:1013A0000120B6E76A6A9CFAACF3B3FA83F303F060
:1013B0001F039840024201D10120AAE7686820F08B
:1013C000030008436860FFF74FFE06466068012887
:1013D0000AD0022815D021E025E0FFF745FE801B4A
:1013E000404501D9032094E76868C0F381000128D3
:1013F000F3D1ADE0FFF738FE801B404501D9032053
:1014000087E76868C0F381000228F3D1A0E0FFF706
:101410002BFE801B404501D903207AE7686810F055
:101420000C0FF4D194E02178890705D56968A2688A
:1014300021F0F001114369602178C90779D0616812
:1014400001290BD002291FD09CFAACF2B2FA82F229
:1014500042F0200252092DD02A682CE093FAA3F220
:10146000B2FA82F242F02002520901D02A6800E06A
:101470006A6A93FAA3F3B3FA83F303F01F03984065
:10148000024223D1012044E796FAA6F2B2FA82F290
:1014900042F02002520901D02A6800E06A6A96FAF6
:1014A000A6F3B3FA83F303F01F03984002420DD171
:1014B00001202EE76A6A9CFAACF3B3FA83F303F0D7
:1014C0001F039840024201D1012022E7686820F002
:1014D000030008436860FFF7C7FD064660680128FF
:1014E00009D0022814D020E0FFF7BEFD801B404544
:1014F00001D903200DE76868C0F381000128F3D10A
:1015000017E0FFF7B1FD801B404501D9032000E73C
:101510006868C0F381000228F3D10AE0FFF7A4FD58
:10152000801B404501D90320F3E6686810F00C0FDA
:10153000F4D1D9F8000020F007003843C9F80000C2
:10154000D9F8000000F00700B84201D00120E0E621
:101550002078400705D56868E16820F4E06008431A
:1015600068602078000706D56868216920F460501B
:1015700040EAC10068600020FFF796FD0020C8E641
:10158000002002400010024000B500F043F8084976
:101590004968F02292FAA2F201F0F001B2FA82F266
:1015A000D140044A515CC8400349086000BD0000B6
:1015B00000100240B02D00080000002000B5FFF729
:1015C000E3FF074949684FF4E06292FAA2F201F49E
:1015D000E061B2FA82F2D140024A515CC84000BDDB
:1015E00000100240B02D000800B5FFF7CDFF0749FD
:1015F00049684FF4605292FAA2F201F46051B2FAD3
:1016000082F2D140024A515CC84000BD0010024045
:10161000B02D000810B585B01AA0D0E90031D0E98E
:101620000220CDE90131CDE903201AA00068009025
:10163000194B5968194801F00C02042A1DD0082AD8
:101640001BD14FF4701494FAA4F401F47012B4FA9C
:1016500084F4E24001ACA25CC90310D559684FF490
:10166000003393FAA3F301F40031B3FA83F3D940C2
:101670001DF80110B0FBF1F0504305B010BD084853
:101680005043FAE702030405060708090A0B0C0D8C
:101690000E0F1010010200000010024000127A002C
:1016A00000093D002DE9F84F0446F94D20784FF030
:1016B0000106C00775D068687704C0F3810001286F
:1016C00007D06868C0F3810002281DD16868C00394
:1016D0001AD597FAA7F0B0FA80F040F02000400940
:1016E00001D0286800E0686A97FAA7F1B1FA81F1A1
:1016F00001F01F0206FA02F1084252D06068002889
:101700004FD10120BDE8F88F286820F48030286090
:10171000286820F480202860FFF7A6FC804607E0B8
:10172000FFF7A2FCA0EB0800642801D90320E9E739
:1017300097FAA7F0B0FA80F040F02000400901D0FD
:10174000286800E0686A97FAA7F1B1FA81F101F020
:101750001F0106FA01F10842E2D16068B0F5803F4E
:1017600011D0A8B1B0F5A02F1CD0286820F480308B
:101770002860286820F4802028606068C8B3FFF7DC
:1017800073FC80461FE0286840F480302860F4E74E
:10179000286820F480302860286820F480202860A1
:1017A000EBE748E0286840F480202860286840F48F
:1017B00080302860E1E7FFF757FCA0EB08006428C1
:1017C00001D903209EE797FAA7F0B0FA80F040F025
:1017D0002000400901D0286800E0686A97FAA7F164
:1017E000B1FA81F101F01F0106FA01F10842E2D0DD
:1017F00021E0FFE7FFF738FC804607E0FFF734FC05
:10180000A0EB0800642801D903207BE797FAA7F032
:10181000B0FA80F040F02000400901D0286800E0D4
:10182000686A97FAA7F1B1FA81F101F01F0106FA8F
:1018300001F10842E2D12078DFF8588280074FF0AA
:10184000000B4FF0020732D568684FF0F80A10F02D
:101850000C0F07D06868C0F38100022828D168689F
:10186000C00325D497FAA7F0B0FA80F040F020002A
:10187000400901D0286800E0686A97FAA7F1B1FA38
:1018800081F101F01F0106FA01F1084204D020693C
:10189000012801D0012035E728689AFAAAF2616987
:1018A000B2FA82F220F0F8009140084328605CE030
:1018B000206990B396FAA6F0B0FA80F048F820605C
:1018C000FFF7D2FB814607E0FFF7CEFBA0EB090054
:1018D000022801D9032015E797FAA7F0B0FA80F0A3
:1018E00040F02000400901D0286800E0686A97FABB
:1018F000A7F1B1FA81F101F01F0106FA01F10842E6
:10190000E2D028689AFAAAF26169B2FA82F220F06B
:10191000F80091400843286027E0FFE796FAA6F018
:10192000B0FA80F048F820B0FFF79EFB814607E050
:10193000FFF79AFBA0EB0900022801D90320E1E69A
:1019400097FAA7F0B0FA80F040F02000400901D0EB
:10195000286800E0686A97FAA7F1B1FA81F101F00E
:101960001F0106FA01F10842E2D12078000770D584
:10197000A069C0B396FAA6F0B0FA80F008EB800038
:10198000C0F88064FFF770FB814607E0FFF76CFB4F
:10199000A0EB0900022801D90320B3E697FAA7F0CB
:1019A000B0FA80F040F06000B6EB501F01D128681B
:1019B0000BE097FAA7F0B0FA80F040F06000B7EBC8
:1019C000501F01D1286A00E0686A97FAA7F1B1FABE
:1019D00081F101F01F0206FA02F10842D6D001207F
:1019E000FFF727FA35E0FFE796FAA6F0B0FA80F0A5
:1019F00008EB8000C0F880B4FFF736FB814607E0B3
:101A0000FFF732FBA0EB0900022801D9032079E699
:101A100097FAA7F0B0FA80F040F06000B6EB501FE4
:101A200001D128680BE097FAA7F0B0FA80F040F0F7
:101A30006000B7EB501F01D1286A00E0686A97FA8E
:101A4000A7F1B1FA81F101F01F0206FA02F1084292
:101A5000D6D12078400770D5E86940F08050E86121
:101A6000E86900F080500090DFF82CA0DAF8000060
:101A700040F48070CAF80000FFF7F6FA81460DE0E6
:101A8000FFF7F2FAA0EB0900642807D9032039E632
:101A9000001002400000424200700040DAF80000EE
:101AA000C005EDD5286A20F001002862286A20F0E0
:101AB00004002862FFF7D8FA814641F2883A07E02D
:101AC000FFF7D2FAA0EB0900504501D9032019E62F
:101AD00097FAA7F0B0FA80F040F04000B6EB501F44
:101AE00001D128680BE097FAA7F0B0FA80F040F037
:101AF0004000B7EB501F01D1286A00E0686A97FAEE
:101B0000A7F1B1FA81F101F01F0106FA01F10842D3
:101B1000D6D1E068012811D0A8B105281CD0286AC8
:101B200020F001002862286A20F004002862E068A2
:101B3000C8B3FFF799FA81461FE06EE0286A40F0CB
:101B400001002862F3E7286A20F001002862286A71
:101B500020F004002862EAE7286A40F004002862C6
:101B6000286A40F001002862E1E7FFF77DFAA0EB68
:101B70000900504501D90320C4E597FAA7F0B0FA4F
:101B800080F040F04000B6EB501F01D128680CE017
:101B900097FAA7F0B0FA80F040F04000B7EB501F82
:101BA00002D1286A01E00BE0686A97FAA7F1B1FA5E
:101BB00081F101F01F0206FA02F10842D5D02CE0B3
:101BC000FFF752FA814607E0FFF74EFAA0EB090053
:101BD000504501D9032095E597FAA7F0B0FA80F0B7
:101BE00040F04000B6EB501F01D128680BE097FA97
:101BF000A7F0B0FA80F040F04000B7EB501F01D1E1
:101C0000286A00E0686A97FAA7F1B1FA81F101F059
:101C10001F0206FA02F10842D6D1E06980B3696872
:101C2000C1F38101022970D04FF080794FF0007725
:101C3000022809D099FAA9F0B0FA80F048F820B04B
:101C4000FFF712FA044668E099FAA9F0B0FA80F0BA
:101C500048F820B0FFF708FA824607E0FFF704FAD9
:101C6000A0EB0A00022801D903204BE597FAA7F060
:101C7000B0FA80F040F02000400902D0286801E06E
:101C800060E0686A97FAA7F1B1FA81F101F01F01EB
:101C900006FA01F10842E1D1206AB0F5803F05D192
:101CA0006868A16820F4003008436860D4E908013E
:101CB0000843696821F474110843686099FAA9F02F
:101CC000B0FA80F048F82060FFF7CEF9044606E04D
:101CD000FFF7CAF9001B022801D9032012E597FA81
:101CE000A7F0B0FA80F040F02000400901D0296848
:101CF00000E0696A97FAA7F0B0FA80F000F01F00E0
:101D000006FA00F00142E3D01CE01DE0FFF7ACF959
:101D1000001B022801D90320F4E497FAA7F0B0FAD7
:101D200080F040F02000400901D0296800E0696A95
:101D300097FAA7F0B0FA80F000F01F0006FA00F062
:101D40000142E3D10020DDE40120DBE44FF0E0219B
:101D5000042804D0086920F004000861704708696D
:101D600040F0040008617047704710B5401EB0F1A4
:101D7000807F01D3012010BD4FF0E02460610F216E
:101D8000601700F0FDFB0020A0610720206100200B
:101D900010BD10B5FFF7E8FF10BD7047704730B5B4
:101DA00090F83820012A20D0012380F83830022210
:101DB00080F839200268546824F070045460026886
:101DC00054680D682C4354600268946824F08004C1
:101DD00094600268946849680C43946080F83930D4
:101DE000002180F83810002030BD022030BD10B531
:101DF0000446002C03D094F8390010B107E001200C
:101E000010BD002084F83800204600F00DF80220B4
:101E100084F83900211D206800F028FC012084F896
:101E20003900002010BD000008B50068104A1149B3
:101E3000904211D1886940F400608861886900F49B
:101E400000600090002201211920FFF779F9BDE818
:101E500008401920FFF768B9B0F1804F07D1C86971
:101E600040F00100C861C86900F00100009008BDA1
:101E7000002C01400010024070B5044694F8380070
:101E8000012817D0012584F83850022084F8390041
:101E90002068826822F0770222F47F42826008681C
:101EA00050283AD00DDC20285FD005DCA0B31028E4
:101EB00064D155E0022070BD30285BD040285DD150
:101EC0003FE0602833D070280CD0B0F5805F03D09D
:101ED000B0F5005F52D113E02068816821F007015E
:101EE00081604BE0CB68D1E90121206800F00DFC56
:101EF0002068816821F0770141F0770181603DE041
:101F0000CB68D1E90121206800F0FFFB20688168DF
:101F100041F48041816031E01DE0CA684968206871
:101F200000F0D6FC5021206800F0F9FB26E0CA68DA
:101F30004968206800F0DDFC6021206800F0EFFBBC
:101F40001CE0CA684968206800F0C2FC4021206893
:101F500000F0E5FB12E00021206800F0E0FB0DE05E
:101F60001021206800F0DBFB08E02021206800F051
:101F7000D6FB03E03021206800F0D1FB38346570D7
:101F80000020207070BD704770B50446206801695C
:101F90004FF00005C943890716D4C168C9438907B2
:101FA00012D4E91E01610120207620688069800733
:101FB00003D02046FFF7E7FF05E0204600F0C4F815
:101FC000204600F02FF9257620680169C9434907AA
:101FD00018D4C168C943490714D46FF004010161E2
:101FE000022020762068806910F4407F03D02046CC
:101FF000FFF7C9FF05E0204600F0A6F8204600F0F4
:1020000011F9257620680169C943090717D4C16809
:10201000C943090713D46FF0080101610420207639
:102020002068C069800703D02046FFF7ACFF05E0B9
:10203000204600F089F8204600F0F4F82576206864
:102040000169C943C90618D4C168C943C90614D473
:102050006FF010010161082020762068C06910F43B
:10206000407F03D02046FFF78EFF05E0204600F0BA
:102070006BF8204600F0D6F8257620680169C94340
:10208000C90708D1C168C943C90704D1891E0161C4
:10209000204600F0E5F820680169C943090609D423
:1020A000C168C943090605D46FF08001016120466B
:1020B000FFF773FE20680169C943490609D4C16866
:1020C000C943490605D46FF040010161204600F084
:1020D000E3F820680169C94389060BD4C168C94384
:1020E000890607D46FF0200101612046BDE87040E9
:1020F000FFF754BE70BD000070B586B00068B0F147
:10210000804F1BD10E48816941F0040181618069D3
:1021100000F004000190042002900225039503249E
:102120000594084E02A93046FEF78EFE0821029162
:102130000395059402A93046FEF786FE06B070BDF1
:102140000010024000080140704770B504460D467B
:1021500094F8380001280DD0012684F83860022058
:1021600084F8390042B1042A1AD0082A2DD00C2A4A
:1021700053D13EE0022070BD2946206800F0D8FA15
:102180002068816941F0080181612068816921F03E
:1021900004018161206881692A69114381613CE001
:1021A0002946206800F0F8FA2068816941F400614E
:1021B00081612068816921F4806181612068816981
:1021C0002A6941EA0221816127E02946206800F05E
:1021D0001DFB2068C16941F00801C1612068C16927
:1021E00021F00401C1612068C1692A691143C161FC
:1021F00013E02946206800F041FB2068C16941F4E2
:102200000061C1612068C16921F48061C1612068F9
:10221000C1692A6941EA0221C1613834667000202F
:10222000207070BD7047000010B504460122206880
:1022300000F060FA08482168814202D007488142D4
:1022400003D1486C40F4004048642068016841F0C4
:1022500001010160002010BD002C0140003401404C
:102260000549884207D105480188491C89B2018087
:1022700003A000F03BBC7047540100200800002080
:102280000D0A2074696D65725F636F756E74203D11
:10229000202564200D0A0000704770B50446002C0C
:1022A00004D094F83900002510B106E0012070BD7B
:1022B00084F83850204600F021F8022084F83900D4
:1022C0002068C16821F40051C160204600F024FB61
:1022D0002068016921F4904101612068416921F081
:1022E0002A0141612068C16841F40051C160E56381
:1022F000012084F83900002070BD000010B586B0C0
:102300000068114988421DD11048816941F480411B
:102310008161806900F4804001904FF40070029068
:102320000220039003200590094C02A92046FEF7E5
:102330008BFD2115029100210391049102A92046F1
:10234000FEF782FD06B010BD0038014000100240CB
:10235000000801402DE9F04104460D46984694F8E6
:102360003900012804D0222802D00220BDE8F081E3
:102370009DB192B194F83800012810D0012684F85C
:1023800038600027E76394F83900222809D012202A
:1023900084F83900A284E2842EE00120E6E70220DE
:1023A000E4E7322084F83900F4E7401EE084A068B6
:1023B000B0F5805F08D0434600228021204600F01F
:1023C00031FBA8B10320D1E74346002280212046FB
:1023D00000F028FB08B10320C8E728882168C0F373
:1023E00008004860206908B16D1C05E0AD1C03E0E1
:1023F000216815F8010B4860E08C0028D5D14346D0
:1024000000224021204600F00DFB08B10320ADE77B
:1024100094F83900322805D084F8396084F838708F
:102420000020A3E7222084F83900F7E77047000076
:1024300030B585B00D48816941F010018161806936
:1024400000F0100000900A4D4FF400540022214685
:102450002846FEF701FE0194012102910221049118
:1024600001A92846FEF7F0FC05B030BD001002407F
:10247000001001402DE9FF411E481D490160002464
:1024800084600125C56044614FF46026C6614460E4
:102490000561FEF757F87710039703A91548FDF774
:1024A00051FF009401954FF00608CDF80880694669
:1024B0001048FDF779FF0F480F4930300160846004
:1024C000C5604461C66144600561FEF73BF803974F
:1024D000084803A93030FDF735FF00940195CDF889
:1024E0000880044869463030FDF75EFFBDE8FF8193
:1024F00000240140400000200028014082B00D4827
:10250000816941F004018161806900F0040001905B
:102510000A48094901604FF4165141600021816069
:10252000C16001610C2242618161C16102B0FFF7AB
:10253000B4BE00000010024000380140D800002066
:10254000FEE770473EB50D480B49016000218160F0
:102550000124C46041614FF46022C26141600461A2
:10256000FDF7F0FF009401940520029069460348AE
:10257000FDF71AFF3EBD0000003C014010000020A6
:102580000907090E002806DA00F00F0000F1E0202C
:1025900080F8141D704700F1E02080F800147047A7
:1025A00010B5FEF767FDBDE81040FFF7F2BB30B590
:1025B00095B001200B9000040C9000240D9402258E
:1025C000129513904FF4E01014900BA8FFF76AF8DF
:1025D0000F20069007950894680209900A9402213A
:1025E00006A8FEF775FE0095A80302906846FEF760
:1025F000D9FDFEF7C9FF4FF47A71B0FBF1F0FFF798
:10260000B4FB0420FFF7A2FB00221146501EFEF788
:1026100097FD15B030BD00000D48016841F0010183
:10262000016041680B4A1140416001680A4A11404B
:102630000160016821F480210160416821F4FE01FC
:1026400041604FF41F0181600449C0030860704776
:10265000001002400000FFF8FFFFF6FE08ED00E06A
:102660000148FFF791BC0000540100202DE9F04122
:1026700002681B4D1B4E1C4FDFF870C01C4B4FF007
:102680008048A84209D0984207D0404505D0B042C2
:1026900003D0B84201D0604503D122F070044A68EB
:1026A0002243A84209D0984207D0404505D0B04205
:1026B00003D0B84201D0604503D122F44074CA6807
:1026C000224302608A68C2620A688262A84201D01C
:1026D000984201D10969016301214161BDE8F0819E
:1026E000002C01400004004000080040000C0040A5
:1026F0000034014010B501238B40046A9C430462FE
:10270000036A8A401343036210BD10B5846824F441
:102710007F4442EA03220A432243826010BD82685A
:1027200022F070020A4342F0070181607047000006
:10273000F0B5026A22F001020262026A436884690B
:1027400024F0700424F003050C682C4322F00205E9
:102750008A682A430E4E0F4FB04201D0B84205D1CD
:1027600022F00805CA682A4322F00402B04201D0D0
:10277000B84207D123F4807323F400734D691D43DD
:102780008B692B4343608461496841630262F0BDF9
:10279000002C014000340140F0B5026A22F0100222
:1027A0000262036A4268846924F4E04424F44074B9
:1027B0000D6844EA052423F020038D6843EA0513DD
:1027C000104D114EA84201D0B04206D123F0800333
:1027D000CF6843EA071323F04003A84201D0B04278
:1027E00009D122F4806222F400624D6942EA850236
:1027F0008D6942EA850242608461496881630362AF
:10280000F0BD0000002C014000340140F0B5026A28
:1028100022F480720262026A4368C46924F0700480
:1028200024F003050C682C4322F400728D6842EA00
:102830000522104D104EA84201D0B04206D122F41C
:102840000062CF6842EA072222F48062A84201D0E7
:10285000B04209D123F4805323F400534D6943EA75
:1028600005138D6943EA05134360C4614968C16378
:102870000262F0BD002C01400034014030B5026A14
:1028800022F480520262046A4268C36923F4E0437E
:1028900023F440730D6843EA052324F400548D6843
:1028A00044EA0534084DA84202D0084DA84204D19C
:1028B00022F480424D6942EA85124260C361496850
:1028C0000164046230BD0000002C0140003401406E
:1028D00010B5036A046A24F001040462846924F0D8
:1028E000F00444EA021423F00A020A4384610262FB
:1028F00010BD10B5036A23F0100303628469036AF4
:1029000024F4704444EA023223F0A00343EA0111A4
:102910008261016210BD00002DE9F041044620688B
:102920000169E26821F4405111430161A168206905
:102930000143606901432068C26841F20C639A4315
:102940000A43C26020684169A26921F440711143C1
:1029500041613349206864253226884230D1FEF730
:1029600043FE00EBC00101EB001061688900B0FB81
:10297000F1F0B0FBF5F7FEF737FE00EBC00101EB1D
:10298000001061688900B0FBF1F8FEF72DFE00EB46
:10299000C00101EB001061688900B0FBF1F0B0FBF1
:1029A000F5F06FF01801484308EB800006EB0010CB
:1029B000B0FBF5F0216867F31F108860BDE8F08177
:1029C000FEF7FCFD00EBC00101EB0010616889001F
:1029D000B0FBF1F0B0FBF5F7FEF7F0FD00EBC00146
:1029E00001EB001061688900B0FBF1F8FEF7E6FD2D
:1029F00000EBC00101EB001061688900B0FBF1F051
:102A0000B0FBF5F06FF01801484308EB800006EBCF
:102A10000010B0FBF5F0216867F31F108860CDE768
:102A2000003801402DE9F04704460F4692461D4606
:102A3000FEF71AFB06464FF000084FF00109BAF105
:102A4000000F23D04AE0681C20D025B1FEF70CFB14
:102A5000801BA8421AD92068C16821F08001C1609A
:102A60002068C16821F02001C1602068C16821F49C
:102A70008071C1602068416921F00101416184F8E1
:102A8000399084F838800320BDE8F087206800681A
:102A900037EA0000D7D126E0681C1FD025B1FEF729
:102AA000E3FA801BA84219D92068C16821F080018F
:102AB000C1602068C16821F02001C1602068C16840
:102AC00021F48071C1602068416921F001014161F8
:102AD00084F8399084F838800320D5E720680068AE
:102AE00037EA0000D8D00020CEE7FEE70FB4054B50
:102AF00010B503A9044A029800F018F810BC5DF85C
:102B000014FB0000592D00080C00002002E008C84A
:102B1000121F08C1002AFAD170477047002001E057
:102B200001C1121F002AFBD1704700002DE9FF4FA1
:102B30008BB09A460F460446002606E025280BD0A7
:102B400052460D999047641C761C20780028F5D1D8
:102B50000FB03046BDE8F08F0025A94601227D491F
:102B600000E0054314F8013F203B02FA03F008425D
:102B7000F7D120782E2817D114F8010F45F004055D
:102B80002A280ED06FF02F022078A0F130010929F9
:102B90000AD809EB890102EB410100EB0109641C31
:102BA000F2E757F8049B641C20786C280DD004DCF5
:102BB0004C2812D06A2811D104E074280DD07A284C
:102BC0000CD10AE045F4001507E0617845F4801562
:102BD000814202D1641C05F58015641C20786928A7
:102BE0003ED006DC0028B3D063280BD0642804D183
:102BF00036E0732810D075285CD052460D99904766
:102C0000761CA5E017F8040B8DF8000000208DF865
:102C10000100E846012003E057F8048B4FF0FF3035
:102C200069074FF0000501D40AE06D1C4D450DDA2F
:102C30008542FADB18F805100029F6D106E06D1C74
:102C40008542FCDB18F805100029F8D12E4404E079
:102C500018F8010B52460D9990476D1EF8D277E097
:102C600000200A90C5F302504FF00A0B02280CD046
:102C700001CFC117021E71F100020CDA0023D0EB64
:102C8000030063EB01012D2208E0FF1D27F0070779
:102C9000F7E80201EEE72A0504D52B228DF824205F
:102CA000012203E0EA070FD02022F7E70DF1200808
:102CB000089218E000200A90C5F302504FF00A0B6A
:102CC000022803D001CF00210022EFE7FF1D27F0EB
:102CD0000707F7E80201F7E75A460A9BFDF754FA9F
:102CE000303208F8012D50EA0102F5D1ADEB0800B1
:102CF00000F1200B680701D44FF00109D94502DD2E
:102D0000A9EB0B0000E000208146002506E009A8A1
:102D10005246405D0D9990476D1C761C089885427F
:102D2000F5DB04E0302052460D999047761CB9F14E
:102D30000001A9F10109F5DC05E018F8010B524684
:102D40000D999047761CBBF10001ABF1010BF4DC4F
:102D5000641CFAE60928010013B54FF6FF7301223F
:102D600069460248FFF7F6FA00981CBDD80000201B
:102D7000FEF788F9FFF71BFCFFF75AFBFFF7BEFBD6
:102D8000FFF778FBFFF7DEFBFDF7A6FA0821064800
:102D9000FFF74AFA0C210448FFF746FAFDF76CFAF0
:102DA0000248FFF7A3FEFEE718010020C02D00082F
:102DB00000000000010203040102030406070809E1
:102DC0000A2D2D2D2D5468697320697320616E20A2
:102DD000766F6C746167652061637175697369747E
:102DE000696F6E206578706572696D656E742028F4
:102DF000444D41207472616E73666572292D2D2DCC
:102E00002D2D0A00242E00080000002010000000D4
:102E10000C2B0008342E0008100000208011000048
:102E20001C2B000800A24A04000000000000000063
:042E3000000000009E
:0400000508000131BD
:00000001FF
